{
  "_format": "hh3-artifact-1",
  "contractName": "AgentPayPolicy",
  "sourceName": "contracts/AgentPayPolicy.sol",
  "abi": [
    {
      "inputs": [
        {
          "internalType": "uint256",
          "name": "requested",
          "type": "uint256"
        },
        {
          "internalType": "uint256",
          "name": "remaining",
          "type": "uint256"
        }
      ],
      "name": "ExceedsDailyLimit",
      "type": "error"
    },
    {
      "inputs": [
        {
          "internalType": "uint256",
          "name": "requested",
          "type": "uint256"
        },
        {
          "internalType": "uint256",
          "name": "limit",
          "type": "uint256"
        }
      ],
      "name": "ExceedsPerTxLimit",
      "type": "error"
    },
    {
      "inputs": [
        {
          "internalType": "uint256",
          "name": "balance",
          "type": "uint256"
        },
        {
          "internalType": "uint256",
          "name": "requested",
          "type": "uint256"
        }
      ],
      "name": "InsufficientBalance",
      "type": "error"
    },
    {
      "inputs": [],
      "name": "PolicyAlreadyExists",
      "type": "error"
    },
    {
      "inputs": [],
      "name": "PolicyNotActive",
      "type": "error"
    },
    {
      "inputs": [
        {
          "internalType": "address",
          "name": "to",
          "type": "address"
        }
      ],
      "name": "RecipientNotApproved",
      "type": "error"
    },
    {
      "inputs": [],
      "name": "TransferFailed",
      "type": "error"
    },
    {
      "inputs": [],
      "name": "Unauthorized",
      "type": "error"
    },
    {
      "anonymous": false,
      "inputs": [
        {
          "indexed": true,
          "internalType": "address",
          "name": "owner",
          "type": "address"
        },
        {
          "indexed": false,
          "internalType": "uint256",
          "name": "amount",
          "type": "uint256"
        }
      ],
      "name": "Deposited",
      "type": "event"
    },
    {
      "anonymous": false,
      "inputs": [
        {
          "indexed": true,
          "internalType": "address",
          "name": "owner",
          "type": "address"
        },
        {
          "indexed": true,
          "internalType": "address",
          "name": "agent",
          "type": "address"
        },
        {
          "indexed": true,
          "internalType": "address",
          "name": "to",
          "type": "address"
        },
        {
          "indexed": false,
          "internalType": "uint256",
          "name": "amount",
          "type": "uint256"
        },
        {
          "indexed": false,
          "internalType": "string",
          "name": "memo",
          "type": "string"
        }
      ],
      "name": "Payment",
      "type": "event"
    },
    {
      "anonymous": false,
      "inputs": [
        {
          "indexed": true,
          "internalType": "address",
          "name": "owner",
          "type": "address"
        },
        {
          "indexed": true,
          "internalType": "address",
          "name": "agent",
          "type": "address"
        },
        {
          "indexed": false,
          "internalType": "uint256",
          "name": "maxPerTx",
          "type": "uint256"
        },
        {
          "indexed": false,
          "internalType": "uint256",
          "name": "dailyLimit",
          "type": "uint256"
        }
      ],
      "name": "PolicyCreated",
      "type": "event"
    },
    {
      "anonymous": false,
      "inputs": [
        {
          "indexed": true,
          "internalType": "address",
          "name": "owner",
          "type": "address"
        }
      ],
      "name": "PolicyDeactivated",
      "type": "event"
    },
    {
      "anonymous": false,
      "inputs": [
        {
          "indexed": true,
          "internalType": "address",
          "name": "owner",
          "type": "address"
        },
        {
          "indexed": true,
          "internalType": "address",
          "name": "agent",
          "type": "address"
        }
      ],
      "name": "PolicyUpdated",
      "type": "event"
    },
    {
      "anonymous": false,
      "inputs": [
        {
          "indexed": true,
          "internalType": "address",
          "name": "owner",
          "type": "address"
        },
        {
          "indexed": false,
          "internalType": "uint256",
          "name": "amount",
          "type": "uint256"
        }
      ],
      "name": "Withdrawn",
      "type": "event"
    },
    {
      "inputs": [
        {
          "internalType": "address",
          "name": "",
          "type": "address"
        }
      ],
      "name": "agentToOwner",
      "outputs": [
        {
          "internalType": "address",
          "name": "",
          "type": "address"
        }
      ],
      "stateMutability": "view",
      "type": "function"
    },
    {
      "inputs": [],
      "name": "deactivatePolicy",
      "outputs": [],
      "stateMutability": "nonpayable",
      "type": "function"
    },
    {
      "inputs": [],
      "name": "deposit",
      "outputs": [],
      "stateMutability": "payable",
      "type": "function"
    },
    {
      "inputs": [],
      "name": "getContractBalance",
      "outputs": [
        {
          "internalType": "uint256",
          "name": "",
          "type": "uint256"
        }
      ],
      "stateMutability": "view",
      "type": "function"
    },
    {
      "inputs": [
        {
          "internalType": "address",
          "name": "owner",
          "type": "address"
        }
      ],
      "name": "getPolicy",
      "outputs": [
        {
          "internalType": "address",
          "name": "agent",
          "type": "address"
        },
        {
          "internalType": "uint256",
          "name": "maxPerTx",
          "type": "uint256"
        },
        {
          "internalType": "uint256",
          "name": "dailyLimit",
          "type": "uint256"
        },
        {
          "internalType": "uint256",
          "name": "spentToday",
          "type": "uint256"
        },
        {
          "internalType": "uint256",
          "name": "remainingToday",
          "type": "uint256"
        },
        {
          "internalType": "bool",
          "name": "active",
          "type": "bool"
        },
        {
          "internalType": "address[]",
          "name": "approvedTo",
          "type": "address[]"
        }
      ],
      "stateMutability": "view",
      "type": "function"
    },
    {
      "inputs": [
        {
          "internalType": "address",
          "name": "owner",
          "type": "address"
        },
        {
          "internalType": "address payable",
          "name": "to",
          "type": "address"
        },
        {
          "internalType": "uint256",
          "name": "amount",
          "type": "uint256"
        },
        {
          "internalType": "string",
          "name": "memo",
          "type": "string"
        }
      ],
      "name": "pay",
      "outputs": [],
      "stateMutability": "nonpayable",
      "type": "function"
    },
    {
      "inputs": [
        {
          "internalType": "address",
          "name": "",
          "type": "address"
        }
      ],
      "name": "policies",
      "outputs": [
        {
          "internalType": "address",
          "name": "agent",
          "type": "address"
        },
        {
          "internalType": "uint256",
          "name": "maxPerTx",
          "type": "uint256"
        },
        {
          "internalType": "uint256",
          "name": "dailyLimit",
          "type": "uint256"
        },
        {
          "internalType": "uint256",
          "name": "spentToday",
          "type": "uint256"
        },
        {
          "internalType": "uint256",
          "name": "dayStart",
          "type": "uint256"
        },
        {
          "internalType": "bool",
          "name": "active",
          "type": "bool"
        }
      ],
      "stateMutability": "view",
      "type": "function"
    },
    {
      "inputs": [],
      "name": "reactivatePolicy",
      "outputs": [],
      "stateMutability": "nonpayable",
      "type": "function"
    },
    {
      "inputs": [
        {
          "internalType": "address",
          "name": "agent",
          "type": "address"
        },
        {
          "internalType": "uint256",
          "name": "maxPerTx",
          "type": "uint256"
        },
        {
          "internalType": "uint256",
          "name": "dailyLimit",
          "type": "uint256"
        },
        {
          "internalType": "address[]",
          "name": "approvedTo",
          "type": "address[]"
        }
      ],
      "name": "setPolicy",
      "outputs": [],
      "stateMutability": "nonpayable",
      "type": "function"
    },
    {
      "inputs": [
        {
          "internalType": "uint256",
          "name": "amount",
          "type": "uint256"
        }
      ],
      "name": "withdraw",
      "outputs": [],
      "stateMutability": "nonpayable",
      "type": "function"
    },
    {
      "stateMutability": "payable",
      "type": "receive"
    }
  ],
  "bytecode": "0x608060405234801561000f575f80fd5b50611ae48061001d5f395ff3fe608060405260043610610094575f3560e01c80637c8e86d1116100585780637c8e86d1146101d857806384a60232146102005780638634f7a814610228578063a7f180151461023e578063d0e30db01461027a576100e9565b806308419db9146100ed57806320e98698146101035780632e1a7d4d146101445780633791dc6a1461016c5780636f9fb98a146101ae576100e9565b366100e9573373ffffffffffffffffffffffffffffffffffffffff167f2da466a7b24304f47e87fa2e1e5a81b9831ce54fec19055ce277ca2f39ba42c4346040516100df9190611228565b60405180910390a2005b5f80fd5b3480156100f8575f80fd5b50610101610284565b005b34801561010e575f80fd5b50610129600480360381019061012491906112a3565b6103a8565b60405161013b969594939291906112f7565b60405180910390f35b34801561014f575f80fd5b5061016a60048036038101906101659190611380565b61040a565b005b348015610177575f80fd5b50610192600480360381019061018d91906112a3565b610542565b6040516101a59796959493929190611462565b60405180910390f35b3480156101b9575f80fd5b506101c26106a1565b6040516101cf9190611228565b60405180910390f35b3480156101e3575f80fd5b506101fe60048036038101906101f99190611537565b6106a8565b005b34801561020b575f80fd5b506102266004803603810190610221919061164b565b610b7f565b005b348015610233575f80fd5b5061023c611053565b005b348015610249575f80fd5b50610264600480360381019061025f91906112a3565b6110ee565b60405161027191906116cf565b60405180910390f35b61028261111e565b005b5f73ffffffffffffffffffffffffffffffffffffffff165f803373ffffffffffffffffffffffffffffffffffffffff1673ffffffffffffffffffffffffffffffffffffffff1681526020019081526020015f205f015f9054906101000a900473ffffffffffffffffffffffffffffffffffffffff1673ffffffffffffffffffffffffffffffffffffffff160361034f576040517f08c379a000000000000000000000000000000000000000000000000000000000815260040161034690611742565b60405180910390fd5b60015f803373ffffffffffffffffffffffffffffffffffffffff1673ffffffffffffffffffffffffffffffffffffffff1681526020019081526020015f206006015f6101000a81548160ff021916908315150217905550565b5f602052805f5260405f205f91509050805f015f9054906101000a900473ffffffffffffffffffffffffffffffffffffffff1690806001015490806002015490806003015490806004015490806006015f9054906101000a900460ff16905086565b804710156104515747816040517fcf479181000000000000000000000000000000000000000000000000000000008152600401610448929190611760565b60405180910390fd5b5f3373ffffffffffffffffffffffffffffffffffffffff1682604051610476906117b4565b5f6040518083038185875af1925050503d805f81146104b0576040519150601f19603f3d011682016040523d82523d5f602084013e6104b5565b606091505b50509050806104f0576040517f90b8ec1800000000000000000000000000000000000000000000000000000000815260040160405180910390fd5b3373ffffffffffffffffffffffffffffffffffffffff167f7084f5476618d8e60b11ef0d7d3f06914655adb8793e28ff7f018d4c76d505d5836040516105369190611228565b60405180910390a25050565b5f805f805f8060605f805f8a73ffffffffffffffffffffffffffffffffffffffff1673ffffffffffffffffffffffffffffffffffffffff1681526020019081526020015f2090505f816003015490506201518082600401546105a491906117f5565b42106105ae575f90505b815f015f9054906101000a900473ffffffffffffffffffffffffffffffffffffffff1682600101548360020154838486600201546105ec9190611828565b866006015f9054906101000a900460ff16876005018080548060200260200160405190810160405280929190818152602001828054801561067f57602002820191905f5260205f20905b815f9054906101000a900473ffffffffffffffffffffffffffffffffffffffff1673ffffffffffffffffffffffffffffffffffffffff1681526020019060010190808311610636575b5050505050905098509850985098509850985098505050919395979092949650565b5f47905090565b5f73ffffffffffffffffffffffffffffffffffffffff168573ffffffffffffffffffffffffffffffffffffffff1603610716576040517f08c379a000000000000000000000000000000000000000000000000000000000815260040161070d906118a5565b60405180910390fd5b5f8411610758576040517f08c379a000000000000000000000000000000000000000000000000000000000815260040161074f9061190d565b60405180910390fd5b8383101561079b576040517f08c379a000000000000000000000000000000000000000000000000000000000815260040161079290611975565b60405180910390fd5b5f805f3373ffffffffffffffffffffffffffffffffffffffff1673ffffffffffffffffffffffffffffffffffffffff1681526020019081526020015f205f015f9054906101000a900473ffffffffffffffffffffffffffffffffffffffff1690505f73ffffffffffffffffffffffffffffffffffffffff168173ffffffffffffffffffffffffffffffffffffffff161461088f5760015f8273ffffffffffffffffffffffffffffffffffffffff1673ffffffffffffffffffffffffffffffffffffffff1681526020019081526020015f205f6101000a81549073ffffffffffffffffffffffffffffffffffffffff02191690555b6040518060e001604052808773ffffffffffffffffffffffffffffffffffffffff1681526020018681526020018581526020015f81526020014281526020018484808060200260200160405190810160405280939291908181526020018383602002808284375f81840152601f19601f820116905080830192505050505050508152602001600115158152505f803373ffffffffffffffffffffffffffffffffffffffff1673ffffffffffffffffffffffffffffffffffffffff1681526020019081526020015f205f820151815f015f6101000a81548173ffffffffffffffffffffffffffffffffffffffff021916908373ffffffffffffffffffffffffffffffffffffffff1602179055506020820151816001015560408201518160020155606082015181600301556080820151816004015560a08201518160050190805190602001906109df92919061116e565b5060c0820151816006015f6101000a81548160ff0219169083151502179055509050503360015f8873ffffffffffffffffffffffffffffffffffffffff1673ffffffffffffffffffffffffffffffffffffffff1681526020019081526020015f205f6101000a81548173ffffffffffffffffffffffffffffffffffffffff021916908373ffffffffffffffffffffffffffffffffffffffff1602179055505f73ffffffffffffffffffffffffffffffffffffffff168173ffffffffffffffffffffffffffffffffffffffff1614610b0f578573ffffffffffffffffffffffffffffffffffffffff163373ffffffffffffffffffffffffffffffffffffffff167f568b4c9b7f3c071a59f53a2a5cd1f35ffa1590ab05142c43dcdeaa9c519becc560405160405180910390a3610b77565b8573ffffffffffffffffffffffffffffffffffffffff163373ffffffffffffffffffffffffffffffffffffffff167f04a464a9a075422590cdaacfd60be8fcd30d839a38b31608fece9ee25267c29d8787604051610b6e929190611760565b60405180910390a35b505050505050565b843373ffffffffffffffffffffffffffffffffffffffff165f808373ffffffffffffffffffffffffffffffffffffffff1673ffffffffffffffffffffffffffffffffffffffff1681526020019081526020015f205f015f9054906101000a900473ffffffffffffffffffffffffffffffffffffffff1673ffffffffffffffffffffffffffffffffffffffff1614610c42576040517f82b4290000000000000000000000000000000000000000000000000000000000815260040160405180910390fd5b5f808273ffffffffffffffffffffffffffffffffffffffff1673ffffffffffffffffffffffffffffffffffffffff1681526020019081526020015f206006015f9054906101000a900460ff16610cc4576040517f8966b51f00000000000000000000000000000000000000000000000000000000815260040160405180910390fd5b5f805f8873ffffffffffffffffffffffffffffffffffffffff1673ffffffffffffffffffffffffffffffffffffffff1681526020019081526020015f2090508060010154851115610d52578481600101546040517fd1e6b2fa000000000000000000000000000000000000000000000000000000008152600401610d49929190611760565b60405180910390fd5b620151808160040154610d6591906117f5565b4210610d7e575f81600301819055504281600401819055505b5f81600301548260020154610d939190611828565b905080861115610ddc5785816040517f473a3226000000000000000000000000000000000000000000000000000000008152600401610dd3929190611760565b60405180910390fd5b5f82600501805490501115610ec8575f805b8360050180549050811015610e83578873ffffffffffffffffffffffffffffffffffffffff16846005018281548110610e2a57610e29611993565b5b905f5260205f20015f9054906101000a900473ffffffffffffffffffffffffffffffffffffffff1673ffffffffffffffffffffffffffffffffffffffff1603610e765760019150610e83565b8080600101915050610dee565b5080610ec657876040517fabe286b6000000000000000000000000000000000000000000000000000000008152600401610ebd9190611a1b565b60405180910390fd5b505b85471015610f0f5747866040517fcf479181000000000000000000000000000000000000000000000000000000008152600401610f06929190611760565b60405180910390fd5b85826003015f828254610f2291906117f5565b925050819055505f8773ffffffffffffffffffffffffffffffffffffffff1687604051610f4e906117b4565b5f6040518083038185875af1925050503d805f8114610f88576040519150601f19603f3d011682016040523d82523d5f602084013e610f8d565b606091505b5050905080610fc8576040517f90b8ec1800000000000000000000000000000000000000000000000000000000815260040160405180910390fd5b8773ffffffffffffffffffffffffffffffffffffffff163373ffffffffffffffffffffffffffffffffffffffff168a73ffffffffffffffffffffffffffffffffffffffff167f2b49e0cb05e7dd8e3d63eeaaf1af6cb7d00b0ab8fa1a1fd5d7138e7cf7b842318a8a8a60405161104093929190611a7e565b60405180910390a4505050505050505050565b5f805f3373ffffffffffffffffffffffffffffffffffffffff1673ffffffffffffffffffffffffffffffffffffffff1681526020019081526020015f206006015f6101000a81548160ff0219169083151502179055503373ffffffffffffffffffffffffffffffffffffffff167fd865e7aacd70c01e98fc3483cabb8e68517a9c90ea19f073836f73eb53153c7960405160405180910390a2565b6001602052805f5260405f205f915054906101000a900473ffffffffffffffffffffffffffffffffffffffff1681565b3373ffffffffffffffffffffffffffffffffffffffff167f2da466a7b24304f47e87fa2e1e5a81b9831ce54fec19055ce277ca2f39ba42c4346040516111649190611228565b60405180910390a2565b828054828255905f5260205f209081019282156111e4579160200282015b828111156111e3578251825f6101000a81548173ffffffffffffffffffffffffffffffffffffffff021916908373ffffffffffffffffffffffffffffffffffffffff1602179055509160200191906001019061118c565b5b5090506111f191906111f5565b5090565b5b8082111561120c575f815f9055506001016111f6565b5090565b5f819050919050565b61122281611210565b82525050565b5f60208201905061123b5f830184611219565b92915050565b5f80fd5b5f80fd5b5f73ffffffffffffffffffffffffffffffffffffffff82169050919050565b5f61127282611249565b9050919050565b61128281611268565b811461128c575f80fd5b50565b5f8135905061129d81611279565b92915050565b5f602082840312156112b8576112b7611241565b5b5f6112c58482850161128f565b91505092915050565b6112d781611268565b82525050565b5f8115159050919050565b6112f1816112dd565b82525050565b5f60c08201905061130a5f8301896112ce565b6113176020830188611219565b6113246040830187611219565b6113316060830186611219565b61133e6080830185611219565b61134b60a08301846112e8565b979650505050505050565b61135f81611210565b8114611369575f80fd5b50565b5f8135905061137a81611356565b92915050565b5f6020828403121561139557611394611241565b5b5f6113a28482850161136c565b91505092915050565b5f81519050919050565b5f82825260208201905092915050565b5f819050602082019050919050565b6113dd81611268565b82525050565b5f6113ee83836113d4565b60208301905092915050565b5f602082019050919050565b5f611410826113ab565b61141a81856113b5565b9350611425836113c5565b805f5b8381101561145557815161143c88826113e3565b9750611447836113fa565b925050600181019050611428565b5085935050505092915050565b5f60e0820190506114755f83018a6112ce565b6114826020830189611219565b61148f6040830188611219565b61149c6060830187611219565b6114a96080830186611219565b6114b660a08301856112e8565b81810360c08301526114c88184611406565b905098975050505050505050565b5f80fd5b5f80fd5b5f80fd5b5f8083601f8401126114f7576114f66114d6565b5b8235905067ffffffffffffffff811115611514576115136114da565b5b6020830191508360208202830111156115305761152f6114de565b5b9250929050565b5f805f805f608086880312156115505761154f611241565b5b5f61155d8882890161128f565b955050602061156e8882890161136c565b945050604061157f8882890161136c565b935050606086013567ffffffffffffffff8111156115a05761159f611245565b5b6115ac888289016114e2565b92509250509295509295909350565b5f6115c582611249565b9050919050565b6115d5816115bb565b81146115df575f80fd5b50565b5f813590506115f0816115cc565b92915050565b5f8083601f84011261160b5761160a6114d6565b5b8235905067ffffffffffffffff811115611628576116276114da565b5b602083019150836001820283011115611644576116436114de565b5b9250929050565b5f805f805f6080868803121561166457611663611241565b5b5f6116718882890161128f565b9550506020611682888289016115e2565b94505060406116938882890161136c565b935050606086013567ffffffffffffffff8111156116b4576116b3611245565b5b6116c0888289016115f6565b92509250509295509295909350565b5f6020820190506116e25f8301846112ce565b92915050565b5f82825260208201905092915050565b7f4e6f20706f6c69637920666f756e6400000000000000000000000000000000005f82015250565b5f61172c600f836116e8565b9150611737826116f8565b602082019050919050565b5f6020820190508181035f83015261175981611720565b9050919050565b5f6040820190506117735f830185611219565b6117806020830184611219565b9392505050565b5f81905092915050565b50565b5f61179f5f83611787565b91506117aa82611791565b5f82019050919050565b5f6117be82611794565b9150819050919050565b7f4e487b71000000000000000000000000000000000000000000000000000000005f52601160045260245ffd5b5f6117ff82611210565b915061180a83611210565b9250828201905080821115611822576118216117c8565b5b92915050565b5f61183282611210565b915061183d83611210565b9250828203905081811115611855576118546117c8565b5b92915050565b7f496e76616c6964206167656e74206164647265737300000000000000000000005f82015250565b5f61188f6015836116e8565b915061189a8261185b565b602082019050919050565b5f6020820190508181035f8301526118bc81611883565b9050919050565b7f6d61785065725478206d757374206265203e20300000000000000000000000005f82015250565b5f6118f76014836116e8565b9150611902826118c3565b602082019050919050565b5f6020820190508181035f830152611924816118eb565b9050919050565b7f6461696c794c696d6974206d757374206265203e3d206d6178506572547800005f82015250565b5f61195f601e836116e8565b915061196a8261192b565b602082019050919050565b5f6020820190508181035f83015261198c81611953565b9050919050565b7f4e487b71000000000000000000000000000000000000000000000000000000005f52603260045260245ffd5b5f819050919050565b5f6119e36119de6119d984611249565b6119c0565b611249565b9050919050565b5f6119f4826119c9565b9050919050565b5f611a05826119ea565b9050919050565b611a15816119fb565b82525050565b5f602082019050611a2e5f830184611a0c565b92915050565b828183375f83830152505050565b5f601f19601f8301169050919050565b5f611a5d83856116e8565b9350611a6a838584611a34565b611a7383611a42565b840190509392505050565b5f604082019050611a915f830186611219565b8181036020830152611aa4818486611a52565b905094935050505056fea26469706673582212208513d171aab9eddeaeea8587492c0239ccedca835f3435cdd7a0bd2efbd5082f64736f6c63430008180033",
  "linkReferences": {},
  "deployedLinkReferences": {},
  "immutableReferences": {},
  "inputSourceName": "project/contracts/AgentPayPolicy.sol",
  "buildInfoId": "solc-0_8_24-ba12ce50f0748c9c6074b89c9813f49692492e66"
}